{
    "_format": "hh-sol-artifact-1",
    "contractName": "Transactions",
    "sourceName": "contracts/Transactions.sol",
    "abi": [
        {
            "anonymous": false,
            "inputs": [
                {
                    "indexed": false,
                    "internalType": "address",
                    "name": "from",
                    "type": "address"
                },
                {
                    "indexed": false,
                    "internalType": "address",
                    "name": "receiver",
                    "type": "address"
                },
                {
                    "indexed": false,
                    "internalType": "uint256",
                    "name": "amount",
                    "type": "uint256"
                },
                {
                    "indexed": false,
                    "internalType": "string",
                    "name": "message",
                    "type": "string"
                },
                {
                    "indexed": false,
                    "internalType": "uint256",
                    "name": "timestamp",
                    "type": "uint256"
                },
                {
                    "indexed": false,
                    "internalType": "string",
                    "name": "keyword",
                    "type": "string"
                }
            ],
            "name": "Transfer",
            "type": "event"
        },
        {
            "inputs": [
                {
                    "internalType": "address payable",
                    "name": "receiver",
                    "type": "address"
                },
                {
                    "internalType": "uint256",
                    "name": "amount",
                    "type": "uint256"
                },
                {
                    "internalType": "string",
                    "name": "message",
                    "type": "string"
                },
                {
                    "internalType": "string",
                    "name": "keyword",
                    "type": "string"
                }
            ],
            "name": "addToBlockchain",
            "outputs": [],
            "stateMutability": "nonpayable",
            "type": "function"
        },
        {
            "inputs": [],
            "name": "getAllTransactions",
            "outputs": [
                {
                    "components": [
                        {
                            "internalType": "address",
                            "name": "sender",
                            "type": "address"
                        },
                        {
                            "internalType": "address",
                            "name": "receiver",
                            "type": "address"
                        },
                        {
                            "internalType": "uint256",
                            "name": "amount",
                            "type": "uint256"
                        },
                        {
                            "internalType": "string",
                            "name": "message",
                            "type": "string"
                        },
                        {
                            "internalType": "uint256",
                            "name": "timestamp",
                            "type": "uint256"
                        },
                        {
                            "internalType": "string",
                            "name": "keyword",
                            "type": "string"
                        }
                    ],
                    "internalType": "struct Transactions.TransferStruct[]",
                    "name": "",
                    "type": "tuple[]"
                }
            ],
            "stateMutability": "view",
            "type": "function"
        },
        {
            "inputs": [],
            "name": "getTransactionCount",
            "outputs": [
                {
                    "internalType": "uint256",
                    "name": "",
                    "type": "uint256"
                }
            ],
            "stateMutability": "view",
            "type": "function"
        },
        {
            "inputs": [
                {
                    "internalType": "uint256",
                    "name": "",
                    "type": "uint256"
                }
            ],
            "name": "transactions",
            "outputs": [
                {
                    "internalType": "address",
                    "name": "sender",
                    "type": "address"
                },
                {
                    "internalType": "address",
                    "name": "receiver",
                    "type": "address"
                },
                {
                    "internalType": "uint256",
                    "name": "amount",
                    "type": "uint256"
                },
                {
                    "internalType": "string",
                    "name": "message",
                    "type": "string"
                },
                {
                    "internalType": "uint256",
                    "name": "timestamp",
                    "type": "uint256"
                },
                {
                    "internalType": "string",
                    "name": "keyword",
                    "type": "string"
                }
            ],
            "stateMutability": "view",
            "type": "function"
        }
    ],
    "bytecode": "0x608060405234801561001057600080fd5b50610e72806100206000396000f3fe608060405234801561001057600080fd5b506004361061004c5760003560e01c806327506f53146100515780632e7700f01461006f5780639ace38c21461008d578063cc2d7ead146100c2575b600080fd5b6100596100de565b6040516100669190610b2b565b60405180910390f35b610077610321565b6040516100849190610b4d565b60405180910390f35b6100a760048036038101906100a2919061084e565b61032a565b6040516100b996959493929190610abc565b60405180910390f35b6100dc60048036038101906100d791906107bb565b6104c6565b005b60606001805480602002602001604051908101604052809291908181526020016000905b8282101561031857838290600052602060002090600602016040518060c00160405290816000820160009054906101000a900473ffffffffffffffffffffffffffffffffffffffff1673ffffffffffffffffffffffffffffffffffffffff1673ffffffffffffffffffffffffffffffffffffffff1681526020016001820160009054906101000a900473ffffffffffffffffffffffffffffffffffffffff1673ffffffffffffffffffffffffffffffffffffffff1673ffffffffffffffffffffffffffffffffffffffff168152602001600282015481526020016003820180546101eb90610cf5565b80601f016020809104026020016040519081016040528092919081815260200182805461021790610cf5565b80156102645780601f1061023957610100808354040283529160200191610264565b820191906000526020600020905b81548152906001019060200180831161024757829003601f168201915b505050505081526020016004820154815260200160058201805461028790610cf5565b80601f01602080910402602001604051908101604052809291908181526020018280546102b390610cf5565b80156103005780601f106102d557610100808354040283529160200191610300565b820191906000526020600020905b8154815290600101906020018083116102e357829003601f168201915b50505050508152505081526020019060010190610102565b50505050905090565b60008054905090565b6001818154811061033a57600080fd5b90600052602060002090600602016000915090508060000160009054906101000a900473ffffffffffffffffffffffffffffffffffffffff16908060010160009054906101000a900473ffffffffffffffffffffffffffffffffffffffff16908060020154908060030180546103af90610cf5565b80601f01602080910402602001604051908101604052809291908181526020018280546103db90610cf5565b80156104285780601f106103fd57610100808354040283529160200191610428565b820191906000526020600020905b81548152906001019060200180831161040b57829003601f168201915b50505050509080600401549080600501805461044390610cf5565b80601f016020809104026020016040519081016040528092919081815260200182805461046f90610cf5565b80156104bc5780601f10610491576101008083540402835291602001916104bc565b820191906000526020600020905b81548152906001019060200180831161049f57829003601f168201915b5050505050905086565b6000808154809291906104d890610d27565b919050555060016040518060c001604052803373ffffffffffffffffffffffffffffffffffffffff1681526020018673ffffffffffffffffffffffffffffffffffffffff16815260200185815260200184815260200142815260200183815250908060018154018082558091505060019003906000526020600020906006020160009091909190915060008201518160000160006101000a81548173ffffffffffffffffffffffffffffffffffffffff021916908373ffffffffffffffffffffffffffffffffffffffff16021790555060208201518160010160006101000a81548173ffffffffffffffffffffffffffffffffffffffff021916908373ffffffffffffffffffffffffffffffffffffffff160217905550604082015181600201556060820151816003019080519060200190610615929190610686565b506080820151816004015560a082015181600501908051906020019061063c929190610686565b5050507f416cfa4330a4565f45c2fd2dd4826a83a37443aba2ce6f79477c7355afac35fa33858585428660405161067896959493929190610a4d565b60405180910390a150505050565b82805461069290610cf5565b90600052602060002090601f0160209004810192826106b457600085556106fb565b82601f106106cd57805160ff19168380011785556106fb565b828001600101855582156106fb579182015b828111156106fa5782518255916020019190600101906106df565b5b509050610708919061070c565b5090565b5b8082111561072557600081600090555060010161070d565b5090565b600061073c61073784610b99565b610b68565b90508281526020810184848401111561075457600080fd5b61075f848285610cb3565b509392505050565b60008135905061077681610e0e565b92915050565b600082601f83011261078d57600080fd5b813561079d848260208601610729565b91505092915050565b6000813590506107b581610e25565b92915050565b600080600080608085870312156107d157600080fd5b60006107df87828801610767565b94505060206107f0878288016107a6565b935050604085013567ffffffffffffffff81111561080d57600080fd5b6108198782880161077c565b925050606085013567ffffffffffffffff81111561083657600080fd5b6108428782880161077c565b91505092959194509250565b60006020828403121561086057600080fd5b600061086e848285016107a6565b91505092915050565b6000610883838361099f565b905092915050565b61089481610c7d565b82525050565b6108a381610c2f565b82525050565b6108b281610c2f565b82525050565b60006108c382610bd9565b6108cd8185610bfc565b9350836020820285016108df85610bc9565b8060005b8581101561091b57848403895281516108fc8582610877565b945061090783610bef565b925060208a019950506001810190506108e3565b50829750879550505050505092915050565b600061093882610be4565b6109428185610c0d565b9350610952818560208601610cc2565b61095b81610dfd565b840191505092915050565b600061097182610be4565b61097b8185610c1e565b935061098b818560208601610cc2565b61099481610dfd565b840191505092915050565b600060c0830160008301516109b7600086018261089a565b5060208301516109ca602086018261089a565b5060408301516109dd6040860182610a2f565b50606083015184820360608601526109f5828261092d565b9150506080830151610a0a6080860182610a2f565b5060a083015184820360a0860152610a22828261092d565b9150508091505092915050565b610a3881610c73565b82525050565b610a4781610c73565b82525050565b600060c082019050610a6260008301896108a9565b610a6f602083018861088b565b610a7c6040830187610a3e565b8181036060830152610a8e8186610966565b9050610a9d6080830185610a3e565b81810360a0830152610aaf8184610966565b9050979650505050505050565b600060c082019050610ad160008301896108a9565b610ade60208301886108a9565b610aeb6040830187610a3e565b8181036060830152610afd8186610966565b9050610b0c6080830185610a3e565b81810360a0830152610b1e8184610966565b9050979650505050505050565b60006020820190508181036000830152610b4581846108b8565b905092915050565b6000602082019050610b626000830184610a3e565b92915050565b6000604051905081810181811067ffffffffffffffff82111715610b8f57610b8e610dce565b5b8060405250919050565b600067ffffffffffffffff821115610bb457610bb3610dce565b5b601f19601f8301169050602081019050919050565b6000819050602082019050919050565b600081519050919050565b600081519050919050565b6000602082019050919050565b600082825260208201905092915050565b600082825260208201905092915050565b600082825260208201905092915050565b6000610c3a82610c53565b9050919050565b6000610c4c82610c53565b9050919050565b600073ffffffffffffffffffffffffffffffffffffffff82169050919050565b6000819050919050565b6000610c8882610c8f565b9050919050565b6000610c9a82610ca1565b9050919050565b6000610cac82610c53565b9050919050565b82818337600083830152505050565b60005b83811015610ce0578082015181840152602081019050610cc5565b83811115610cef576000848401525b50505050565b60006002820490506001821680610d0d57607f821691505b60208210811415610d2157610d20610d9f565b5b50919050565b6000610d3282610c73565b91507fffffffffffffffffffffffffffffffffffffffffffffffffffffffffffffffff821415610d6557610d64610d70565b5b600182019050919050565b7f4e487b7100000000000000000000000000000000000000000000000000000000600052601160045260246000fd5b7f4e487b7100000000000000000000000000000000000000000000000000000000600052602260045260246000fd5b7f4e487b7100000000000000000000000000000000000000000000000000000000600052604160045260246000fd5b6000601f19601f8301169050919050565b610e1781610c41565b8114610e2257600080fd5b50565b610e2e81610c73565b8114610e3957600080fd5b5056fea264697066735822122013d03d5a6f11b58e04df91dc335f4d64df9d9d12eb3261c12d1410f1a4de84a764736f6c63430008000033",
    "linkReferences": {},
    "deployedLinkReferences": {}
}